{
  "contractName": "KYC",
  "abi": [
    {
      "inputs": [],
      "payable": false,
      "stateMutability": "nonpayable",
      "type": "constructor"
    },
    {
      "constant": true,
      "inputs": [
        {
          "internalType": "address",
          "name": "",
          "type": "address"
        },
        {
          "internalType": "uint256",
          "name": "",
          "type": "uint256"
        }
      ],
      "name": "b2bRatings",
      "outputs": [
        {
          "internalType": "address",
          "name": "",
          "type": "address"
        }
      ],
      "payable": false,
      "stateMutability": "view",
      "type": "function"
    },
    {
      "constant": true,
      "inputs": [
        {
          "internalType": "bytes32",
          "name": "",
          "type": "bytes32"
        },
        {
          "internalType": "uint256",
          "name": "",
          "type": "uint256"
        }
      ],
      "name": "b2cRatings",
      "outputs": [
        {
          "internalType": "address",
          "name": "",
          "type": "address"
        }
      ],
      "payable": false,
      "stateMutability": "view",
      "type": "function"
    },
    {
      "constant": true,
      "inputs": [
        {
          "internalType": "uint256",
          "name": "",
          "type": "uint256"
        }
      ],
      "name": "bankAddresses",
      "outputs": [
        {
          "internalType": "address",
          "name": "",
          "type": "address"
        }
      ],
      "payable": false,
      "stateMutability": "view",
      "type": "function"
    },
    {
      "constant": true,
      "inputs": [
        {
          "internalType": "address",
          "name": "",
          "type": "address"
        },
        {
          "internalType": "uint256",
          "name": "",
          "type": "uint256"
        }
      ],
      "name": "bankRequests",
      "outputs": [
        {
          "internalType": "bytes32",
          "name": "username",
          "type": "bytes32"
        },
        {
          "internalType": "address",
          "name": "bank",
          "type": "address"
        },
        {
          "internalType": "bytes32",
          "name": "data",
          "type": "bytes32"
        },
        {
          "internalType": "bool",
          "name": "isAllowed",
          "type": "bool"
        }
      ],
      "payable": false,
      "stateMutability": "view",
      "type": "function"
    },
    {
      "constant": true,
      "inputs": [
        {
          "internalType": "address",
          "name": "",
          "type": "address"
        }
      ],
      "name": "banks",
      "outputs": [
        {
          "internalType": "bytes32",
          "name": "name",
          "type": "bytes32"
        },
        {
          "internalType": "address",
          "name": "ethAddress",
          "type": "address"
        },
        {
          "internalType": "uint256",
          "name": "rating",
          "type": "uint256"
        },
        {
          "internalType": "uint256",
          "name": "kycCount",
          "type": "uint256"
        },
        {
          "internalType": "bytes32",
          "name": "regNumber",
          "type": "bytes32"
        }
      ],
      "payable": false,
      "stateMutability": "view",
      "type": "function"
    },
    {
      "constant": true,
      "inputs": [
        {
          "internalType": "uint256",
          "name": "",
          "type": "uint256"
        }
      ],
      "name": "customers",
      "outputs": [
        {
          "internalType": "bytes32",
          "name": "username",
          "type": "bytes32"
        },
        {
          "internalType": "bytes32",
          "name": "data",
          "type": "bytes32"
        },
        {
          "internalType": "uint256",
          "name": "rating",
          "type": "uint256"
        },
        {
          "internalType": "uint256",
          "name": "votes",
          "type": "uint256"
        },
        {
          "internalType": "address",
          "name": "bank",
          "type": "address"
        }
      ],
      "payable": false,
      "stateMutability": "view",
      "type": "function"
    },
    {
      "constant": true,
      "inputs": [
        {
          "internalType": "uint256",
          "name": "",
          "type": "uint256"
        }
      ],
      "name": "finalCustomers",
      "outputs": [
        {
          "internalType": "bytes32",
          "name": "username",
          "type": "bytes32"
        },
        {
          "internalType": "bytes32",
          "name": "data",
          "type": "bytes32"
        },
        {
          "internalType": "uint256",
          "name": "rating",
          "type": "uint256"
        },
        {
          "internalType": "uint256",
          "name": "votes",
          "type": "uint256"
        },
        {
          "internalType": "address",
          "name": "bank",
          "type": "address"
        }
      ],
      "payable": false,
      "stateMutability": "view",
      "type": "function"
    },
    {
      "constant": true,
      "inputs": [],
      "name": "owner",
      "outputs": [
        {
          "internalType": "address",
          "name": "",
          "type": "address"
        }
      ],
      "payable": false,
      "stateMutability": "view",
      "type": "function"
    },
    {
      "constant": false,
      "inputs": [
        {
          "internalType": "bytes32",
          "name": "n",
          "type": "bytes32"
        },
        {
          "internalType": "address",
          "name": "e",
          "type": "address"
        },
        {
          "internalType": "bytes32",
          "name": "rn",
          "type": "bytes32"
        }
      ],
      "name": "addBank",
      "outputs": [
        {
          "internalType": "bool",
          "name": "",
          "type": "bool"
        }
      ],
      "payable": false,
      "stateMutability": "nonpayable",
      "type": "function"
    },
    {
      "constant": false,
      "inputs": [
        {
          "internalType": "address",
          "name": "a",
          "type": "address"
        }
      ],
      "name": "removeBank",
      "outputs": [
        {
          "internalType": "bool",
          "name": "",
          "type": "bool"
        }
      ],
      "payable": false,
      "stateMutability": "nonpayable",
      "type": "function"
    },
    {
      "constant": false,
      "inputs": [
        {
          "internalType": "bytes32",
          "name": "u",
          "type": "bytes32"
        },
        {
          "internalType": "bytes32",
          "name": "d",
          "type": "bytes32"
        }
      ],
      "name": "addRequest",
      "outputs": [
        {
          "internalType": "uint256",
          "name": "",
          "type": "uint256"
        }
      ],
      "payable": false,
      "stateMutability": "nonpayable",
      "type": "function"
    },
    {
      "constant": false,
      "inputs": [
        {
          "internalType": "bytes32",
          "name": "u",
          "type": "bytes32"
        },
        {
          "internalType": "bytes32",
          "name": "d",
          "type": "bytes32"
        }
      ],
      "name": "removeRequest",
      "outputs": [
        {
          "internalType": "uint256",
          "name": "",
          "type": "uint256"
        }
      ],
      "payable": false,
      "stateMutability": "nonpayable",
      "type": "function"
    },
    {
      "constant": false,
      "inputs": [
        {
          "internalType": "address",
          "name": "a",
          "type": "address"
        }
      ],
      "name": "upvoteBank",
      "outputs": [
        {
          "internalType": "uint256",
          "name": "",
          "type": "uint256"
        }
      ],
      "payable": false,
      "stateMutability": "nonpayable",
      "type": "function"
    },
    {
      "constant": false,
      "inputs": [
        {
          "internalType": "bytes32",
          "name": "u",
          "type": "bytes32"
        },
        {
          "internalType": "bytes32",
          "name": "p",
          "type": "bytes32"
        }
      ],
      "name": "setCustPassword",
      "outputs": [
        {
          "internalType": "uint256",
          "name": "",
          "type": "uint256"
        }
      ],
      "payable": false,
      "stateMutability": "nonpayable",
      "type": "function"
    },
    {
      "constant": false,
      "inputs": [
        {
          "internalType": "bytes32",
          "name": "u",
          "type": "bytes32"
        },
        {
          "internalType": "bytes32",
          "name": "d",
          "type": "bytes32"
        }
      ],
      "name": "addCustomer",
      "outputs": [
        {
          "internalType": "uint256",
          "name": "",
          "type": "uint256"
        }
      ],
      "payable": false,
      "stateMutability": "nonpayable",
      "type": "function"
    },
    {
      "constant": false,
      "inputs": [
        {
          "internalType": "bytes32",
          "name": "user",
          "type": "bytes32"
        }
      ],
      "name": "removeCustomer",
      "outputs": [
        {
          "internalType": "uint256",
          "name": "",
          "type": "uint256"
        }
      ],
      "payable": false,
      "stateMutability": "nonpayable",
      "type": "function"
    },
    {
      "constant": false,
      "inputs": [
        {
          "internalType": "bytes32",
          "name": "u",
          "type": "bytes32"
        },
        {
          "internalType": "bytes32",
          "name": "p",
          "type": "bytes32"
        },
        {
          "internalType": "bytes32",
          "name": "d",
          "type": "bytes32"
        }
      ],
      "name": "modifyCustomer",
      "outputs": [
        {
          "internalType": "uint256",
          "name": "",
          "type": "uint256"
        }
      ],
      "payable": false,
      "stateMutability": "nonpayable",
      "type": "function"
    },
    {
      "constant": false,
      "inputs": [
        {
          "internalType": "bytes32",
          "name": "u",
          "type": "bytes32"
        }
      ],
      "name": "upvoteCust",
      "outputs": [
        {
          "internalType": "uint256",
          "name": "",
          "type": "uint256"
        }
      ],
      "payable": false,
      "stateMutability": "nonpayable",
      "type": "function"
    },
    {
      "constant": true,
      "inputs": [
        {
          "internalType": "bytes32",
          "name": "user",
          "type": "bytes32"
        },
        {
          "internalType": "bytes32",
          "name": "p",
          "type": "bytes32"
        }
      ],
      "name": "viewCustomer",
      "outputs": [
        {
          "internalType": "bytes32",
          "name": "",
          "type": "bytes32"
        }
      ],
      "payable": false,
      "stateMutability": "view",
      "type": "function"
    },
    {
      "constant": true,
      "inputs": [
        {
          "internalType": "bytes32",
          "name": "user",
          "type": "bytes32"
        }
      ],
      "name": "getCustRating",
      "outputs": [
        {
          "internalType": "uint256",
          "name": "",
          "type": "uint256"
        }
      ],
      "payable": false,
      "stateMutability": "view",
      "type": "function"
    },
    {
      "constant": true,
      "inputs": [
        {
          "internalType": "bytes32",
          "name": "user",
          "type": "bytes32"
        }
      ],
      "name": "accessHistory",
      "outputs": [
        {
          "internalType": "address",
          "name": "",
          "type": "address"
        }
      ],
      "payable": false,
      "stateMutability": "view",
      "type": "function"
    },
    {
      "constant": true,
      "inputs": [
        {
          "internalType": "address",
          "name": "a",
          "type": "address"
        }
      ],
      "name": "getBank",
      "outputs": [
        {
          "internalType": "bytes32",
          "name": "",
          "type": "bytes32"
        },
        {
          "internalType": "address",
          "name": "",
          "type": "address"
        },
        {
          "internalType": "uint256",
          "name": "",
          "type": "uint256"
        },
        {
          "internalType": "uint256",
          "name": "",
          "type": "uint256"
        },
        {
          "internalType": "bytes32",
          "name": "",
          "type": "bytes32"
        }
      ],
      "payable": false,
      "stateMutability": "view",
      "type": "function"
    },
    {
      "constant": true,
      "inputs": [
        {
          "internalType": "address",
          "name": "a",
          "type": "address"
        }
      ],
      "name": "getBankRating",
      "outputs": [
        {
          "internalType": "uint256",
          "name": "",
          "type": "uint256"
        }
      ],
      "payable": false,
      "stateMutability": "view",
      "type": "function"
    },
    {
      "constant": true,
      "inputs": [
        {
          "internalType": "address",
          "name": "a",
          "type": "address"
        }
      ],
      "name": "getBankRequestsNum",
      "outputs": [
        {
          "internalType": "uint256",
          "name": "",
          "type": "uint256"
        }
      ],
      "payable": false,
      "stateMutability": "view",
      "type": "function"
    },
    {
      "constant": true,
      "inputs": [
        {
          "internalType": "address",
          "name": "a",
          "type": "address"
        },
        {
          "internalType": "uint256",
          "name": "i",
          "type": "uint256"
        }
      ],
      "name": "getBankRequest",
      "outputs": [
        {
          "internalType": "bytes32",
          "name": "",
          "type": "bytes32"
        },
        {
          "internalType": "bytes32",
          "name": "",
          "type": "bytes32"
        },
        {
          "internalType": "address",
          "name": "",
          "type": "address"
        },
        {
          "internalType": "bool",
          "name": "",
          "type": "bool"
        }
      ],
      "payable": false,
      "stateMutability": "view",
      "type": "function"
    }
  ],
  "bytecode": "0x608060405234801561001057600080fd5b5033600860006101000a81548173ffffffffffffffffffffffffffffffffffffffff021916908373ffffffffffffffffffffffffffffffffffffffff16021790555061566b80620000626000396000f3fe608060405234801561001057600080fd5b50600436106101735760003560e01c806383e0c31d116100de578063b245a9ed11610097578063c0abda2a11610071578063c0abda2a14610a02578063c9091acc14610a8c578063e84bdb2e14610ad8578063ec4b5cef14610b2457610173565b8063b245a9ed146108b7578063b8144a721461095e578063bf2264cb146109b657610173565b806383e0c31d146106455780638699bc40146106e55780638a7221cb1461076f5780638da5cb5b146107bb5780639649650c14610805578063a73b6c9e1461086157610173565b80634ab9ab0d116101305780634ab9ab0d1461037e5780634ad2b312146103ca5780634fb7080c1461043857806358f5fc25146104df57806374bccc3c1461053757806380c3b8c2146105a557610173565b806306aecb8c146101785780632f2170ef146101e85780633311ebbe1461022a5780634491bf5e146102a257806349d1a861146102e457806349fb94e214610326575b600080fd5b6101ce6004803603606081101561018e57600080fd5b8101908080359060200190929190803573ffffffffffffffffffffffffffffffffffffffff16906020019092919080359060200190929190505050610bb2565b604051808215151515815260200191505060405180910390f35b610214600480360360208110156101fe57600080fd5b8101908080359060200190929190505050610f5f565b6040518082815260200191505060405180910390f35b6102606004803603604081101561024057600080fd5b810190808035906020019092919080359060200190929190505050611140565b604051808273ffffffffffffffffffffffffffffffffffffffff1673ffffffffffffffffffffffffffffffffffffffff16815260200191505060405180910390f35b6102ce600480360360208110156102b857600080fd5b810190808035906020019092919050505061118b565b6040518082815260200191505060405180910390f35b610310600480360360208110156102fa57600080fd5b81019080803590602001909291905050506115bf565b6040518082815260200191505060405180910390f35b6103686004803603602081101561033c57600080fd5b81019080803573ffffffffffffffffffffffffffffffffffffffff169060200190929190505050611868565b6040518082815260200191505060405180910390f35b6103b46004803603604081101561039457600080fd5b810190808035906020019092919080359060200190929190505050611cce565b6040518082815260200191505060405180910390f35b6103f6600480360360208110156103e057600080fd5b8101908080359060200190929190505050612229565b604051808273ffffffffffffffffffffffffffffffffffffffff1673ffffffffffffffffffffffffffffffffffffffff16815260200191505060405180910390f35b6104846004803603604081101561044e57600080fd5b81019080803573ffffffffffffffffffffffffffffffffffffffff16906020019092919080359060200190929190505050612476565b604051808581526020018481526020018373ffffffffffffffffffffffffffffffffffffffff1673ffffffffffffffffffffffffffffffffffffffff1681526020018215151515815260200194505050505060405180910390f35b610521600480360360208110156104f557600080fd5b81019080803573ffffffffffffffffffffffffffffffffffffffff169060200190929190505050612681565b6040518082815260200191505060405180910390f35b6105636004803603602081101561054d57600080fd5b81019080803590602001909291905050506127ba565b604051808273ffffffffffffffffffffffffffffffffffffffff1673ffffffffffffffffffffffffffffffffffffffff16815260200191505060405180910390f35b6105e7600480360360208110156105bb57600080fd5b81019080803573ffffffffffffffffffffffffffffffffffffffff1690602001909291905050506127f6565b604051808681526020018573ffffffffffffffffffffffffffffffffffffffff1673ffffffffffffffffffffffffffffffffffffffff1681526020018481526020018381526020018281526020019550505050505060405180910390f35b6106876004803603602081101561065b57600080fd5b81019080803573ffffffffffffffffffffffffffffffffffffffff16906020019092919050505061284c565b604051808681526020018573ffffffffffffffffffffffffffffffffffffffff1673ffffffffffffffffffffffffffffffffffffffff1681526020018481526020018381526020018281526020019550505050505060405180910390f35b610711600480360360208110156106fb57600080fd5b81019080803590602001909291905050506129d6565b604051808681526020018581526020018481526020018381526020018273ffffffffffffffffffffffffffffffffffffffff1673ffffffffffffffffffffffffffffffffffffffff1681526020019550505050505060405180910390f35b6107a56004803603604081101561078557600080fd5b810190808035906020019092919080359060200190929190505050612a39565b6040518082815260200191505060405180910390f35b6107c3612cab565b604051808273ffffffffffffffffffffffffffffffffffffffff1673ffffffffffffffffffffffffffffffffffffffff16815260200191505060405180910390f35b6108476004803603602081101561081b57600080fd5b81019080803573ffffffffffffffffffffffffffffffffffffffff169060200190929190505050612cd1565b604051808215151515815260200191505060405180910390f35b6108a16004803603606081101561087757600080fd5b81019080803590602001909291908035906020019092919080359060200190929190505050612faf565b6040518082815260200191505060405180910390f35b610903600480360360408110156108cd57600080fd5b81019080803573ffffffffffffffffffffffffffffffffffffffff169060200190929190803590602001909291905050506134ed565b604051808581526020018473ffffffffffffffffffffffffffffffffffffffff1673ffffffffffffffffffffffffffffffffffffffff1681526020018381526020018215151515815260200194505050505060405180910390f35b6109a06004803603602081101561097457600080fd5b81019080803573ffffffffffffffffffffffffffffffffffffffff169060200190929190505050613564565b6040518082815260200191505060405180910390f35b6109ec600480360360408110156109cc57600080fd5b8101908080359060200190929190803590602001909291905050506135b0565b6040518082815260200191505060405180910390f35b610a2e60048036036020811015610a1857600080fd5b81019080803590602001909291905050506136c0565b604051808681526020018581526020018481526020018381526020018273ffffffffffffffffffffffffffffffffffffffff1673ffffffffffffffffffffffffffffffffffffffff1681526020019550505050505060405180910390f35b610ac260048036036040811015610aa257600080fd5b810190808035906020019092919080359060200190929190505050613723565b6040518082815260200191505060405180910390f35b610b0e60048036036040811015610aee57600080fd5b8101908080359060200190929190803590602001909291905050506140c3565b6040518082815260200191505060405180910390f35b610b7060048036036040811015610b3a57600080fd5b81019080803573ffffffffffffffffffffffffffffffffffffffff16906020019092919080359060200190929190505050614393565b604051808273ffffffffffffffffffffffffffffffffffffffff1673ffffffffffffffffffffffffffffffffffffffff16815260200191505060405180910390f35b6000600860009054906101000a900473ffffffffffffffffffffffffffffffffffffffff1673ffffffffffffffffffffffffffffffffffffffff163373ffffffffffffffffffffffffffffffffffffffff1614610c5a576040517f08c379a00000000000000000000000000000000000000000000000000000000081526004018080602001828103825260328152602001806155b56032913960400191505060405180910390fd5b828260006001905060008090505b600780549050811015610d75578373ffffffffffffffffffffffffffffffffffffffff1660078281548110610c9957fe5b9060005260206000200160009054906101000a900473ffffffffffffffffffffffffffffffffffffffff1673ffffffffffffffffffffffffffffffffffffffff161480610d5e5750826006600060078481548110610cf357fe5b9060005260206000200160009054906101000a900473ffffffffffffffffffffffffffffffffffffffff1673ffffffffffffffffffffffffffffffffffffffff1673ffffffffffffffffffffffffffffffffffffffff16815260200190815260200160002060040154145b15610d6857600091505b8080600101915050610c68565b5080610de9576040517f08c379a00000000000000000000000000000000000000000000000000000000081526004018080602001828103825260158152602001807f42616e6b20616c72656164792070726573656e7421000000000000000000000081525060200191505060405180910390fd5b6040518060a001604052808881526020018773ffffffffffffffffffffffffffffffffffffffff168152602001600081526020016000815260200186815250600660008873ffffffffffffffffffffffffffffffffffffffff1673ffffffffffffffffffffffffffffffffffffffff1681526020019081526020016000206000820151816000015560208201518160010160006101000a81548173ffffffffffffffffffffffffffffffffffffffff021916908373ffffffffffffffffffffffffffffffffffffffff16021790555060408201518160020155606082015181600301556080820151816004015590505060078690806001815401808255809150509060018203906000526020600020016000909192909190916101000a81548173ffffffffffffffffffffffffffffffffffffffff021916908373ffffffffffffffffffffffffffffffffffffffff16021790555050610f476143de565b50610f506146cb565b50600193505050509392505050565b6000806000905060008090505b600780549050811015610ff6573373ffffffffffffffffffffffffffffffffffffffff1660078281548110610f9d57fe5b9060005260206000200160009054906101000a900473ffffffffffffffffffffffffffffffffffffffff1673ffffffffffffffffffffffffffffffffffffffff161415610fe957600191505b8080600101915050610f6c565b508061104d576040517f08c379a00000000000000000000000000000000000000000000000000000000081526004018080602001828103825260268152602001806156116026913960400191505060405180910390fd5b600080905060008090505b6002805490508110156110be57846002828154811061107357fe5b90600052602060002090600502016000015414156110b1576002818154811061109857fe5b90600052602060002090600502016002015491506110be565b8080600101915050611058565b5060008114156111365760008090505b6003805490508110156111345784600382815481106110e957fe5b9060005260206000209060050201600001541415611127576003818154811061110e57fe5b9060005260206000209060050201600201549150611134565b80806001019150506110ce565b505b8092505050919050565b6004602052816000526040600020818154811061115957fe5b906000526020600020016000915091509054906101000a900473ffffffffffffffffffffffffffffffffffffffff1681565b6000806000905060008090505b600780549050811015611222573373ffffffffffffffffffffffffffffffffffffffff16600782815481106111c957fe5b9060005260206000200160009054906101000a900473ffffffffffffffffffffffffffffffffffffffff1673ffffffffffffffffffffffffffffffffffffffff16141561121557600191505b8080600101915050611198565b5080611279576040517f08c379a00000000000000000000000000000000000000000000000000000000081526004018080602001828103825260268152602001806156116026913960400191505060405180910390fd5b8233600080905060008090505b60028054905081101561131b578273ffffffffffffffffffffffffffffffffffffffff16600282815481106112b757fe5b906000526020600020906005020160040160009054906101000a900473ffffffffffffffffffffffffffffffffffffffff1673ffffffffffffffffffffffffffffffffffffffff16141561130e576001915061131b565b8080600101915050611286565b506000151581151514156113c65760008090505b6003805490508110156113c4578273ffffffffffffffffffffffffffffffffffffffff166003828154811061136057fe5b906000526020600020906005020160040160009054906101000a900473ffffffffffffffffffffffffffffffffffffffff1673ffffffffffffffffffffffffffffffffffffffff1614156113b757600191506113c4565b808060010191505061132f565b505b80611439576040517f08c379a00000000000000000000000000000000000000000000000000000000081526004018080602001828103825260168152602001807f437573746f6d6572206973206e6f7420796f757273210000000000000000000081525060200191505060405180910390fd5b600080905060008090505b6002805490508110156114f257876002828154811061145f57fe5b90600052602060002090600502016000015414156114e5576002818154811061148457fe5b90600052602060002090600502016000808201600090556001820160009055600282016000905560038201600090556004820160006101000a81549073ffffffffffffffffffffffffffffffffffffffff02191690555050600191506114f2565b8080600101915050611444565b5060008114156115b25760008090505b6003805490508110156115b057876003828154811061151d57fe5b90600052602060002090600502016000015414156115a3576003818154811061154257fe5b90600052602060002090600502016000808201600090556001820160009055600282016000905560038201600090556004820160006101000a81549073ffffffffffffffffffffffffffffffffffffffff02191690555050600191506115b0565b8080600101915050611502565b505b8095505050505050919050565b6000806000905060008090505b600780549050811015611656573373ffffffffffffffffffffffffffffffffffffffff16600782815481106115fd57fe5b9060005260206000200160009054906101000a900473ffffffffffffffffffffffffffffffffffffffff1673ffffffffffffffffffffffffffffffffffffffff16141561164957600191505b80806001019150506115cc565b50806116ad576040517f08c379a00000000000000000000000000000000000000000000000000000000081526004018080602001828103825260268152602001806156116026913960400191505060405180910390fd5b823360006001905060008090505b6004600085815260200190815260200160002080549050811015611767578273ffffffffffffffffffffffffffffffffffffffff1660046000868152602001908152602001600020828154811061170e57fe5b9060005260206000200160009054906101000a900473ffffffffffffffffffffffffffffffffffffffff1673ffffffffffffffffffffffffffffffffffffffff16141561175a57600091505b80806001019150506116bb565b50806117db576040517f08c379a000000000000000000000000000000000000000000000000000000000815260040180806020018281038252600f8152602001807f43616e6e6f742072652d766f746521000000000000000000000000000000000081525060200191505060405180910390fd5b600460008781526020019081526020016000203390806001815401808255809150509060018203906000526020600020016000909192909190916101000a81548173ffffffffffffffffffffffffffffffffffffffff021916908373ffffffffffffffffffffffffffffffffffffffff1602179055505061185a6146cb565b506001945050505050919050565b6000806000905060008090505b6007805490508110156118ff573373ffffffffffffffffffffffffffffffffffffffff16600782815481106118a657fe5b9060005260206000200160009054906101000a900473ffffffffffffffffffffffffffffffffffffffff1673ffffffffffffffffffffffffffffffffffffffff1614156118f257600191505b8080600101915050611875565b5080611956576040517f08c379a00000000000000000000000000000000000000000000000000000000081526004018080602001828103825260268152602001806156116026913960400191505060405180910390fd5b60006001905060008090505b600560008673ffffffffffffffffffffffffffffffffffffffff1673ffffffffffffffffffffffffffffffffffffffff16815260200190815260200160002080549050811015611a66573373ffffffffffffffffffffffffffffffffffffffff16600560008773ffffffffffffffffffffffffffffffffffffffff1673ffffffffffffffffffffffffffffffffffffffff1681526020019081526020016000208281548110611a0d57fe5b9060005260206000200160009054906101000a900473ffffffffffffffffffffffffffffffffffffffff1673ffffffffffffffffffffffffffffffffffffffff161415611a5957600091505b8080600101915050611962565b506001811415611cc457600560008573ffffffffffffffffffffffffffffffffffffffff1673ffffffffffffffffffffffffffffffffffffffff1681526020019081526020016000203390806001815401808255809150509060018203906000526020600020016000909192909190916101000a81548173ffffffffffffffffffffffffffffffffffffffff021916908373ffffffffffffffffffffffffffffffffffffffff160217905550506007805490506064600560008773ffffffffffffffffffffffffffffffffffffffff1673ffffffffffffffffffffffffffffffffffffffff168152602001908152602001600020805490500281611b6657fe5b04600660008673ffffffffffffffffffffffffffffffffffffffff1673ffffffffffffffffffffffffffffffffffffffff1681526020019081526020016000206002018190555060008090505b600160008673ffffffffffffffffffffffffffffffffffffffff1673ffffffffffffffffffffffffffffffffffffffff16815260200190815260200160002080549050811015611cc2576032600660008773ffffffffffffffffffffffffffffffffffffffff1673ffffffffffffffffffffffffffffffffffffffff1681526020019081526020016000206002015411600160008773ffffffffffffffffffffffffffffffffffffffff1673ffffffffffffffffffffffffffffffffffffffff1681526020019081526020016000208281548110611c8d57fe5b906000526020600020906004020160030160006101000a81548160ff0219169083151502179055508080600101915050611bb3565b505b8092505050919050565b6000806000905060008090505b600780549050811015611d65573373ffffffffffffffffffffffffffffffffffffffff1660078281548110611d0c57fe5b9060005260206000200160009054906101000a900473ffffffffffffffffffffffffffffffffffffffff1673ffffffffffffffffffffffffffffffffffffffff161415611d5857600191505b8080600101915050611cdb565b5080611dbc576040517f08c379a00000000000000000000000000000000000000000000000000000000081526004018080602001828103825260268152602001806156116026913960400191505060405180910390fd5b838360006001905060008090505b600280549050811015611e42578260028281548110611de557fe5b9060005260206000209060050201600101541415611e065760009150611e42565b8360028281548110611e1457fe5b9060005260206000209060050201600001541415611e355760009150611e42565b8080600101915050611dca565b5060008090505b600380549050811015611ec1578260038281548110611e6457fe5b9060005260206000209060050201600101541415611e855760009150611ec1565b8360038281548110611e9357fe5b9060005260206000209060050201600001541415611eb45760009150611ec1565b8080600101915050611e49565b5080611f18576040517f08c379a00000000000000000000000000000000000000000000000000000000081526004018080602001828103825260348152602001806155356034913960400191505060405180910390fd5b868660006001905060008090505b600160003373ffffffffffffffffffffffffffffffffffffffff1673ffffffffffffffffffffffffffffffffffffffff168152602001908152602001600020805490508110156120555782600160003373ffffffffffffffffffffffffffffffffffffffff1673ffffffffffffffffffffffffffffffffffffffff1681526020019081526020016000208281548110611fbb57fe5b9060005260206000209060040201600201541415611fdc5760009150612055565b83600160003373ffffffffffffffffffffffffffffffffffffffff1673ffffffffffffffffffffffffffffffffffffffff168152602001908152602001600020828154811061202757fe5b90600052602060002090600402016000015414156120485760009150612055565b8080600101915050611f26565b50806120ac576040517f08c379a00000000000000000000000000000000000000000000000000000000081526004018080602001828103825260238152602001806155696023913960400191505060405180910390fd5b60006032600660003373ffffffffffffffffffffffffffffffffffffffff1673ffffffffffffffffffffffffffffffffffffffff16815260200190815260200160002060020154119050600160003373ffffffffffffffffffffffffffffffffffffffff1673ffffffffffffffffffffffffffffffffffffffff16815260200190815260200160002060405180608001604052808d81526020013373ffffffffffffffffffffffffffffffffffffffff1681526020018c8152602001831515815250908060018154018082558091505090600182039060005260206000209060040201600090919290919091506000820151816000015560208201518160010160006101000a81548173ffffffffffffffffffffffffffffffffffffffff021916908373ffffffffffffffffffffffffffffffffffffffff1602179055506040820151816002015560608201518160030160006101000a81548160ff02191690831515021790555050505060019850505050505050505092915050565b6000806000905060008090505b6007805490508110156122c0573373ffffffffffffffffffffffffffffffffffffffff166007828154811061226757fe5b9060005260206000200160009054906101000a900473ffffffffffffffffffffffffffffffffffffffff1673ffffffffffffffffffffffffffffffffffffffff1614156122b357600191505b8080600101915050612236565b5080612317576040517f08c379a00000000000000000000000000000000000000000000000000000000081526004018080602001828103825260268152602001806156116026913960400191505060405180910390fd5b600080905060008090505b6002805490508110156123a857846002828154811061233d57fe5b906000526020600020906005020160000154141561239b576002818154811061236257fe5b906000526020600020906005020160040160009054906101000a900473ffffffffffffffffffffffffffffffffffffffff1691506123a8565b8080600101915050612322565b50600073ffffffffffffffffffffffffffffffffffffffff168173ffffffffffffffffffffffffffffffffffffffff16141561246c5760008090505b60038054905081101561246a5784600382815481106123ff57fe5b906000526020600020906005020160000154141561245d576003818154811061242457fe5b906000526020600020906005020160040160009054906101000a900473ffffffffffffffffffffffffffffffffffffffff16915061246a565b80806001019150506123e4565b505b8092505050919050565b600080600080600080905060008090505b600780549050811015612511573373ffffffffffffffffffffffffffffffffffffffff16600782815481106124b857fe5b9060005260206000200160009054906101000a900473ffffffffffffffffffffffffffffffffffffffff1673ffffffffffffffffffffffffffffffffffffffff16141561250457600191505b8080600101915050612487565b5080612568576040517f08c379a00000000000000000000000000000000000000000000000000000000081526004018080602001828103825260268152602001806156116026913960400191505060405180910390fd5b6125706153db565b600160008973ffffffffffffffffffffffffffffffffffffffff1673ffffffffffffffffffffffffffffffffffffffff16815260200190815260200160002087815481106125ba57fe5b9060005260206000209060040201604051806080016040529081600082015481526020016001820160009054906101000a900473ffffffffffffffffffffffffffffffffffffffff1673ffffffffffffffffffffffffffffffffffffffff1673ffffffffffffffffffffffffffffffffffffffff168152602001600282015481526020016003820160009054906101000a900460ff161515151581525050905080600001518160400151826020015183606001519550955095509550505092959194509250565b6000806000905060008090505b600780549050811015612718573373ffffffffffffffffffffffffffffffffffffffff16600782815481106126bf57fe5b9060005260206000200160009054906101000a900473ffffffffffffffffffffffffffffffffffffffff1673ffffffffffffffffffffffffffffffffffffffff16141561270b57600191505b808060010191505061268e565b508061276f576040517f08c379a00000000000000000000000000000000000000000000000000000000081526004018080602001828103825260268152602001806156116026913960400191505060405180910390fd5b600160008473ffffffffffffffffffffffffffffffffffffffff1673ffffffffffffffffffffffffffffffffffffffff16815260200190815260200160002080549050915050919050565b600781815481106127c757fe5b906000526020600020016000915054906101000a900473ffffffffffffffffffffffffffffffffffffffff1681565b60066020528060005260406000206000915090508060000154908060010160009054906101000a900473ffffffffffffffffffffffffffffffffffffffff16908060020154908060030154908060040154905085565b6000806000806000600660008773ffffffffffffffffffffffffffffffffffffffff1673ffffffffffffffffffffffffffffffffffffffff16815260200190815260200160002060000154600660008873ffffffffffffffffffffffffffffffffffffffff1673ffffffffffffffffffffffffffffffffffffffff16815260200190815260200160002060010160009054906101000a900473ffffffffffffffffffffffffffffffffffffffff16600660008973ffffffffffffffffffffffffffffffffffffffff1673ffffffffffffffffffffffffffffffffffffffff16815260200190815260200160002060020154600660008a73ffffffffffffffffffffffffffffffffffffffff1673ffffffffffffffffffffffffffffffffffffffff16815260200190815260200160002060030154600660008b73ffffffffffffffffffffffffffffffffffffffff1673ffffffffffffffffffffffffffffffffffffffff168152602001908152602001600020600401549450945094509450945091939590929450565b600381815481106129e357fe5b90600052602060002090600502016000915090508060000154908060010154908060020154908060030154908060040160009054906101000a900473ffffffffffffffffffffffffffffffffffffffff16905085565b6000806000905060008090505b600780549050811015612ad0573373ffffffffffffffffffffffffffffffffffffffff1660078281548110612a7757fe5b9060005260206000200160009054906101000a900473ffffffffffffffffffffffffffffffffffffffff1673ffffffffffffffffffffffffffffffffffffffff161415612ac357600191505b8080600101915050612a46565b5080612b27576040517f08c379a00000000000000000000000000000000000000000000000000000000081526004018080602001828103825260268152602001806156116026913960400191505060405180910390fd5b8383600080838152602001908152602001600020548114612bb0576040517f08c379a00000000000000000000000000000000000000000000000000000000081526004018080602001828103825260138152602001807f416363657373206e6f74206772616e746564210000000000000000000000000081525060200191505060405180910390fd5b60008060001b905060008090505b600280549050811015612c24578760028281548110612bd957fe5b9060005260206000209060050201600001541415612c175760028181548110612bfe57fe5b9060005260206000209060050201600101549150612c24565b8080600101915050612bbe565b506000801b811415612c9e5760008090505b600380549050811015612c9c578760038281548110612c5157fe5b9060005260206000209060050201600001541415612c8f5760038181548110612c7657fe5b9060005260206000209060050201600101549150612c9c565b8080600101915050612c36565b505b8094505050505092915050565b600860009054906101000a900473ffffffffffffffffffffffffffffffffffffffff1681565b6000600860009054906101000a900473ffffffffffffffffffffffffffffffffffffffff1673ffffffffffffffffffffffffffffffffffffffff163373ffffffffffffffffffffffffffffffffffffffff1614612d79576040517f08c379a00000000000000000000000000000000000000000000000000000000081526004018080602001828103825260328152602001806155b56032913960400191505060405180910390fd5b600660008373ffffffffffffffffffffffffffffffffffffffff1673ffffffffffffffffffffffffffffffffffffffff1681526020019081526020016000206000808201600090556001820160006101000a81549073ffffffffffffffffffffffffffffffffffffffff02191690556002820160009055600382016000905560048201600090555050600560008373ffffffffffffffffffffffffffffffffffffffff1673ffffffffffffffffffffffffffffffffffffffff1681526020019081526020016000206000612e4d9190615421565b612e5682614b35565b50612e6082614f65565b5060008090505b600780549050811015612f93578273ffffffffffffffffffffffffffffffffffffffff1660078281548110612e9857fe5b9060005260206000200160009054906101000a900473ffffffffffffffffffffffffffffffffffffffff1673ffffffffffffffffffffffffffffffffffffffff161415612f8657612f6f6007805480602002602001604051908101604052809291908181526020018280548015612f6457602002820191906000526020600020905b8160009054906101000a900473ffffffffffffffffffffffffffffffffffffffff1673ffffffffffffffffffffffffffffffffffffffff1681526020019060010190808311612f1a575b505050505082615294565b60079080519060200190612f84929190615442565b505b8080600101915050612e67565b50612f9c6143de565b50612fa56146cb565b5060019050919050565b6000806000905060008090505b600780549050811015613046573373ffffffffffffffffffffffffffffffffffffffff1660078281548110612fed57fe5b9060005260206000200160009054906101000a900473ffffffffffffffffffffffffffffffffffffffff1673ffffffffffffffffffffffffffffffffffffffff16141561303957600191505b8080600101915050612fbc565b508061309d576040517f08c379a00000000000000000000000000000000000000000000000000000000081526004018080602001828103825260268152602001806156116026913960400191505060405180910390fd5b8484600080838152602001908152602001600020548114613126576040517f08c379a00000000000000000000000000000000000000000000000000000000081526004018080602001828103825260138152602001807f416363657373206e6f74206772616e746564210000000000000000000000000081525060200191505060405180910390fd5b8460006001905060008090505b60028054905081101561317c57826002828154811061314e57fe5b906000526020600020906005020160010154141561316f576000915061317c565b8080600101915050613133565b5060008090505b6003805490508110156131cc57826003828154811061319e57fe5b90600052602060002090600502016001015414156131bf57600091506131cc565b8080600101915050613183565b5080613223576040517f08c379a000000000000000000000000000000000000000000000000000000000815260040180806020018281038252602981526020018061558c6029913960400191505060405180910390fd5b600080905060008090505b60028054905081101561333f578a6002828154811061324957fe5b906000526020600020906005020160000154141561333257886002828154811061326f57fe5b906000526020600020906005020160010181905550336002828154811061329257fe5b906000526020600020906005020160040160006101000a81548173ffffffffffffffffffffffffffffffffffffffff021916908373ffffffffffffffffffffffffffffffffffffffff1602179055506000600282815481106132f057fe5b90600052602060002090600502016003018190555060006002828154811061331457fe5b9060005260206000209060050201600201819055506001915061333f565b808060010191505061322e565b5060008114156134dd5760008090505b6003805490508110156134db578a6003828154811061336a57fe5b90600052602060002090600502016000015414156134ce576003818154811061338f57fe5b90600052602060002090600502016000808201600090556001820160009055600282016000905560038201600090556004820160006101000a81549073ffffffffffffffffffffffffffffffffffffffff0219169055505060026040518060a001604052808d81526020018b815260200160008152602001600081526020013373ffffffffffffffffffffffffffffffffffffffff16815250908060018154018082558091505090600182039060005260206000209060050201600090919290919091506000820151816000015560208201518160010155604082015181600201556060820151816003015560808201518160040160006101000a81548173ffffffffffffffffffffffffffffffffffffffff021916908373ffffffffffffffffffffffffffffffffffffffff160217905550505050600191506134db565b808060010191505061334f565b505b8096505050505050509392505050565b6001602052816000526040600020818154811061350657fe5b9060005260206000209060040201600091509150508060000154908060010160009054906101000a900473ffffffffffffffffffffffffffffffffffffffff16908060020154908060030160009054906101000a900460ff16905084565b6000600660008373ffffffffffffffffffffffffffffffffffffffff1673ffffffffffffffffffffffffffffffffffffffff168152602001908152602001600020600201549050919050565b6000806000905060008090505b600780549050811015613647573373ffffffffffffffffffffffffffffffffffffffff16600782815481106135ee57fe5b9060005260206000200160009054906101000a900473ffffffffffffffffffffffffffffffffffffffff1673ffffffffffffffffffffffffffffffffffffffff16141561363a57600191505b80806001019150506135bd565b508061369e576040517f08c379a00000000000000000000000000000000000000000000000000000000081526004018080602001828103825260268152602001806156116026913960400191505060405180910390fd5b8260008086815260200190815260200160002081905550600191505092915050565b600281815481106136cd57fe5b90600052602060002090600502016000915090508060000154908060010154908060020154908060030154908060040160009054906101000a900473ffffffffffffffffffffffffffffffffffffffff16905085565b6000806000905060008090505b6007805490508110156137ba573373ffffffffffffffffffffffffffffffffffffffff166007828154811061376157fe5b9060005260206000200160009054906101000a900473ffffffffffffffffffffffffffffffffffffffff1673ffffffffffffffffffffffffffffffffffffffff1614156137ad57600191505b8080600101915050613730565b5080613811576040517f08c379a00000000000000000000000000000000000000000000000000000000081526004018080602001828103825260268152602001806156116026913960400191505060405180910390fd5b838360006001905060008090505b60028054905081101561389757826002828154811061383a57fe5b906000526020600020906005020160010154141561385b5760009150613897565b836002828154811061386957fe5b906000526020600020906005020160000154141561388a5760009150613897565b808060010191505061381f565b5060008090505b6003805490508110156139165782600382815481106138b957fe5b90600052602060002090600502016001015414156138da5760009150613916565b83600382815481106138e857fe5b90600052602060002090600502016000015414156139095760009150613916565b808060010191505061389e565b508061396d576040517f08c379a00000000000000000000000000000000000000000000000000000000081526004018080602001828103825260348152602001806155356034913960400191505060405180910390fd5b8686600080905060008090505b600780549050811015613b835760008090505b600160006007848154811061399e57fe5b9060005260206000200160009054906101000a900473ffffffffffffffffffffffffffffffffffffffff1673ffffffffffffffffffffffffffffffffffffffff1673ffffffffffffffffffffffffffffffffffffffff16815260200190815260200160002080549050811015613b7557613a166153db565b6001600060078581548110613a2757fe5b9060005260206000200160009054906101000a900473ffffffffffffffffffffffffffffffffffffffff1673ffffffffffffffffffffffffffffffffffffffff1673ffffffffffffffffffffffffffffffffffffffff1681526020019081526020016000208281548110613a9757fe5b9060005260206000209060040201604051806080016040529081600082015481526020016001820160009054906101000a900473ffffffffffffffffffffffffffffffffffffffff1673ffffffffffffffffffffffffffffffffffffffff1673ffffffffffffffffffffffffffffffffffffffff168152602001600282015481526020016003820160009054906101000a900460ff1615151515815250509050858160000151148015613b4d5750848160400151145b15613b6757806060015115613b66576001935050613b75565b5b50808060010191505061398d565b50808060010191505061397a565b5080613bda576040517f08c379a000000000000000000000000000000000000000000000000000000000815260040180806020018281038252602a8152602001806155e7602a913960400191505060405180910390fd5b600080905060006032600660003373ffffffffffffffffffffffffffffffffffffffff1673ffffffffffffffffffffffffffffffffffffffff1681526020019081526020016000206002015411905080156140b1576001600660003373ffffffffffffffffffffffffffffffffffffffff1673ffffffffffffffffffffffffffffffffffffffff1681526020019081526020016000206003015401600660003373ffffffffffffffffffffffffffffffffffffffff1673ffffffffffffffffffffffffffffffffffffffff1681526020019081526020016000206003018190555060026040518060a001604052808e81526020018d815260200160008152602001600081526020013373ffffffffffffffffffffffffffffffffffffffff16815250908060018154018082558091505090600182039060005260206000209060050201600090919290919091506000820151816000015560208201518160010155604082015181600201556060820151816003015560808201518160040160006101000a81548173ffffffffffffffffffffffffffffffffffffffff021916908373ffffffffffffffffffffffffffffffffffffffff1602179055505050507f300000000000000000000000000000000000000000000000000000000000000060001b6000808e81526020019081526020016000208190555060008090505b6007805490508110156140af5760008090505b6001600060078481548110613dfd57fe5b9060005260206000200160009054906101000a900473ffffffffffffffffffffffffffffffffffffffff1673ffffffffffffffffffffffffffffffffffffffff1673ffffffffffffffffffffffffffffffffffffffff168152602001908152602001600020805490508110156140a157613e756153db565b6001600060078581548110613e8657fe5b9060005260206000200160009054906101000a900473ffffffffffffffffffffffffffffffffffffffff1673ffffffffffffffffffffffffffffffffffffffff1673ffffffffffffffffffffffffffffffffffffffff1681526020019081526020016000208281548110613ef657fe5b9060005260206000209060040201604051806080016040529081600082015481526020016001820160009054906101000a900473ffffffffffffffffffffffffffffffffffffffff1673ffffffffffffffffffffffffffffffffffffffff1673ffffffffffffffffffffffffffffffffffffffff168152602001600282015481526020016003820160009054906101000a900460ff16151515158152505090508e8160000151148015613fac57508d8160400151145b15614093576001600060078581548110613fc257fe5b9060005260206000200160009054906101000a900473ffffffffffffffffffffffffffffffffffffffff1673ffffffffffffffffffffffffffffffffffffffff1673ffffffffffffffffffffffffffffffffffffffff168152602001908152602001600020828154811061403257fe5b90600052602060002090600402016000808201600090556001820160006101000a81549073ffffffffffffffffffffffffffffffffffffffff021916905560028201600090556003820160006101000a81549060ff02191690555050600194505b508080600101915050613dec565b508080600101915050613dd9565b505b81995050505050505050505092915050565b6000806000905060008090505b60078054905081101561415a573373ffffffffffffffffffffffffffffffffffffffff166007828154811061410157fe5b9060005260206000200160009054906101000a900473ffffffffffffffffffffffffffffffffffffffff1673ffffffffffffffffffffffffffffffffffffffff16141561414d57600191505b80806001019150506140d0565b50806141b1576040517f08c379a00000000000000000000000000000000000000000000000000000000081526004018080602001828103825260268152602001806156116026913960400191505060405180910390fd5b600080905060008090505b600160003373ffffffffffffffffffffffffffffffffffffffff1673ffffffffffffffffffffffffffffffffffffffff168152602001908152602001600020805490508110156143875784600160003373ffffffffffffffffffffffffffffffffffffffff1673ffffffffffffffffffffffffffffffffffffffff168152602001908152602001600020828154811061425157fe5b9060005260206000209060040201600201541480156142ca575085600160003373ffffffffffffffffffffffffffffffffffffffff1673ffffffffffffffffffffffffffffffffffffffff16815260200190815260200160002082815481106142b657fe5b906000526020600020906004020160000154145b1561437a57600160003373ffffffffffffffffffffffffffffffffffffffff1673ffffffffffffffffffffffffffffffffffffffff168152602001908152602001600020818154811061431957fe5b90600052602060002090600402016000808201600090556001820160006101000a81549073ffffffffffffffffffffffffffffffffffffffff021916905560028201600090556003820160006101000a81549060ff02191690555050600191505b80806001019150506141bc565b50809250505092915050565b600560205281600052604060002081815481106143ac57fe5b906000526020600020016000915091509054906101000a900473ffffffffffffffffffffffffffffffffffffffff1681565b600080600090505b6007805490508110156146c3576007805490506064600560006007858154811061440c57fe5b9060005260206000200160009054906101000a900473ffffffffffffffffffffffffffffffffffffffff1673ffffffffffffffffffffffffffffffffffffffff1673ffffffffffffffffffffffffffffffffffffffff16815260200190815260200160002080549050028161447d57fe5b04600660006007848154811061448f57fe5b9060005260206000200160009054906101000a900473ffffffffffffffffffffffffffffffffffffffff1673ffffffffffffffffffffffffffffffffffffffff1673ffffffffffffffffffffffffffffffffffffffff1681526020019081526020016000206002018190555060008090505b600160006007848154811061451257fe5b9060005260206000200160009054906101000a900473ffffffffffffffffffffffffffffffffffffffff1673ffffffffffffffffffffffffffffffffffffffff1673ffffffffffffffffffffffffffffffffffffffff168152602001908152602001600020805490508110156146b5576032600660006007858154811061459557fe5b9060005260206000200160009054906101000a900473ffffffffffffffffffffffffffffffffffffffff1673ffffffffffffffffffffffffffffffffffffffff1673ffffffffffffffffffffffffffffffffffffffff1681526020019081526020016000206002015411600160006007858154811061461057fe5b9060005260206000200160009054906101000a900473ffffffffffffffffffffffffffffffffffffffff1673ffffffffffffffffffffffffffffffffffffffff1673ffffffffffffffffffffffffffffffffffffffff168152602001908152602001600020828154811061468057fe5b906000526020600020906004020160030160006101000a81548160ff0219169083151502179055508080600101915050614501565b5080806001019150506143e6565b506001905090565b600080600090505b6002805490508110156148fd5760046000600283815481106146f157fe5b9060005260206000209060050201600001548152602001908152602001600020805490506002828154811061472257fe5b90600052602060002090600502016003018190555060078054905060646002838154811061474c57fe5b906000526020600020906005020160030154028161476657fe5b046002828154811061477457fe5b90600052602060002090600502016002018190555060326002828154811061479857fe5b90600052602060002090600502016002015411156148f0576003600282815481106147bf57fe5b906000526020600020906005020190806001815401808255809150509060018203906000526020600020906005020160009091929091909150600082015481600001556001820154816001015560028201548160020155600382015481600301556004820160009054906101000a900473ffffffffffffffffffffffffffffffffffffffff168160040160006101000a81548173ffffffffffffffffffffffffffffffffffffffff021916908373ffffffffffffffffffffffffffffffffffffffff1602179055505050506002818154811061489757fe5b90600052602060002090600502016000808201600090556001820160009055600282016000905560038201600090556004820160006101000a81549073ffffffffffffffffffffffffffffffffffffffff021916905550505b80806001019150506146d3565b5060008090505b600380549050811015614b2d57600460006003838154811061492257fe5b9060005260206000209060050201600001548152602001908152602001600020805490506003828154811061495357fe5b90600052602060002090600502016003018190555060078054905060646003838154811061497d57fe5b906000526020600020906005020160030154028161499757fe5b04600382815481106149a557fe5b9060005260206000209060050201600201819055506032600382815481106149c957fe5b90600052602060002090600502016002015411614b20576002600382815481106149ef57fe5b906000526020600020906005020190806001815401808255809150509060018203906000526020600020906005020160009091929091909150600082015481600001556001820154816001015560028201548160020155600382015481600301556004820160009054906101000a900473ffffffffffffffffffffffffffffffffffffffff168160040160006101000a81548173ffffffffffffffffffffffffffffffffffffffff021916908373ffffffffffffffffffffffffffffffffffffffff16021790555050505060038181548110614ac757fe5b90600052602060002090600502016000808201600090556001820160009055600282016000905560038201600090556004820160006101000a81549073ffffffffffffffffffffffffffffffffffffffff021916905550505b8080600101915050614904565b506001905090565b600080600090505b600280549050811015614d465760008090505b6004600060028481548110614b6157fe5b906000526020600020906005020160000154815260200190815260200160002080549050811015614d38578373ffffffffffffffffffffffffffffffffffffffff166004600060028581548110614bb457fe5b90600052602060002090600502016000015481526020019081526020016000208281548110614bdf57fe5b9060005260206000200160009054906101000a900473ffffffffffffffffffffffffffffffffffffffff1673ffffffffffffffffffffffffffffffffffffffff161415614d2b57614ce56004600060028581548110614c3a57fe5b9060005260206000209060050201600001548152602001908152602001600020805480602002602001604051908101604052809291908181526020018280548015614cda57602002820191906000526020600020905b8160009054906101000a900473ffffffffffffffffffffffffffffffffffffffff1673ffffffffffffffffffffffffffffffffffffffff1681526020019060010190808311614c90575b505050505082615294565b6004600060028581548110614cf657fe5b90600052602060002090600502016000015481526020019081526020016000209080519060200190614d29929190615442565b505b8080600101915050614b50565b508080600101915050614b3d565b5060008090505b600380549050811015614f565760008090505b6004600060038481548110614d7157fe5b906000526020600020906005020160000154815260200190815260200160002080549050811015614f48578373ffffffffffffffffffffffffffffffffffffffff166004600060038581548110614dc457fe5b90600052602060002090600502016000015481526020019081526020016000208281548110614def57fe5b9060005260206000200160009054906101000a900473ffffffffffffffffffffffffffffffffffffffff1673ffffffffffffffffffffffffffffffffffffffff161415614f3b57614ef56004600060038581548110614e4a57fe5b9060005260206000209060050201600001548152602001908152602001600020805480602002602001604051908101604052809291908181526020018280548015614eea57602002820191906000526020600020905b8160009054906101000a900473ffffffffffffffffffffffffffffffffffffffff1673ffffffffffffffffffffffffffffffffffffffff1681526020019060010190808311614ea0575b505050505082615294565b6004600060038581548110614f0657fe5b90600052602060002090600502016000015481526020019081526020016000209080519060200190614f39929190615442565b505b8080600101915050614d60565b508080600101915050614d4d565b50614f5f6146cb565b50919050565b600080600090505b60078054905081101561528a5760008090505b6005600060078481548110614f9157fe5b9060005260206000200160009054906101000a900473ffffffffffffffffffffffffffffffffffffffff1673ffffffffffffffffffffffffffffffffffffffff1673ffffffffffffffffffffffffffffffffffffffff1681526020019081526020016000208054905081101561527c578373ffffffffffffffffffffffffffffffffffffffff16600560006007858154811061502957fe5b9060005260206000200160009054906101000a900473ffffffffffffffffffffffffffffffffffffffff1673ffffffffffffffffffffffffffffffffffffffff1673ffffffffffffffffffffffffffffffffffffffff168152602001908152602001600020828154811061509957fe5b9060005260206000200160009054906101000a900473ffffffffffffffffffffffffffffffffffffffff1673ffffffffffffffffffffffffffffffffffffffff16141561526f576151e460056000600785815481106150f457fe5b9060005260206000200160009054906101000a900473ffffffffffffffffffffffffffffffffffffffff1673ffffffffffffffffffffffffffffffffffffffff1673ffffffffffffffffffffffffffffffffffffffff1681526020019081526020016000208054806020026020016040519081016040528092919081815260200182805480156151d957602002820191906000526020600020905b8160009054906101000a900473ffffffffffffffffffffffffffffffffffffffff1673ffffffffffffffffffffffffffffffffffffffff168152602001906001019080831161518f575b505050505082615294565b60056000600785815481106151f557fe5b9060005260206000200160009054906101000a900473ffffffffffffffffffffffffffffffffffffffff1673ffffffffffffffffffffffffffffffffffffffff1673ffffffffffffffffffffffffffffffffffffffff168152602001908152602001600020908051906020019061526d929190615442565b505b8080600101915050614f80565b508080600101915050614f6d565b5060019050919050565b6060825182106152a6578290506153d5565b606060018451036040519080825280602002602001820160405280156152db5781602001602082028038833980820191505090505b50905060008090505b81518110156153cb578381141580156152fc57508381105b156153605784818151811061530d57fe5b602002602001015182828151811061532157fe5b602002602001019073ffffffffffffffffffffffffffffffffffffffff16908173ffffffffffffffffffffffffffffffffffffffff16815250506153be565b84600182018151811061536f57fe5b602002602001015182828151811061538357fe5b602002602001019073ffffffffffffffffffffffffffffffffffffffff16908173ffffffffffffffffffffffffffffffffffffffff16815250505b80806001019150506152e4565b5060609350809150505b92915050565b604051806080016040528060008019168152602001600073ffffffffffffffffffffffffffffffffffffffff168152602001600080191681526020016000151581525090565b508054600082559060005260206000209081019061543f91906154cc565b50565b8280548282559060005260206000209081019282156154bb579160200282015b828111156154ba5782518260006101000a81548173ffffffffffffffffffffffffffffffffffffffff021916908373ffffffffffffffffffffffffffffffffffffffff16021790555091602001919060010190615462565b5b5090506154c891906154f1565b5090565b6154ee91905b808211156154ea5760008160009055506001016154d2565b5090565b90565b61553191905b8082111561552d57600081816101000a81549073ffffffffffffffffffffffffffffffffffffffff0219169055506001016154f7565b5090565b9056fe437573746f6d657220757365726e616d65202f2064617461206973206e6f7420756e6971756520696e20637573746f6d65727321437573746f6d6572206973206e6f7420756e6971756520696e20726571756573747321437573746f6d65722064617461206973206e6f7420756e6971756520696e20637573746f6d657273214f6e6c792074686520636f6e7472616374206f776e65722063616e20706572666f726d2074686973206f7065726174696f6e437573746f6d6572206973206e6f742072657175657374656420627920747275737465642062616e6b214f6e6c7920612062616e6b2063616e20706572666f726d2074686973206f7065726174696f6ea265627a7a7231582082155d8450fb21a7aac4f1fa0ab803707552535b69c9588185e7d9715bc4032564736f6c634300050c0032",
  "source": "pragma solidity 0.5.12;\r\n\r\n\r\ncontract KYC {\r\n\r\n    struct Customer {\r\n        bytes32 username;\r\n        bytes32 data;\r\n        uint rating;\r\n        uint votes;\r\n        address bank;\r\n    }\r\n\r\n    struct Bank {\r\n        bytes32 name;\r\n        address ethAddress;\r\n        uint rating;\r\n        uint kycCount;\r\n        bytes32 regNumber;\r\n    }\r\n\r\n    struct KycReq {\r\n        bytes32 username;\r\n        address bank;\r\n        bytes32 data;\r\n        bool isAllowed;\r\n    }\r\n\r\n    mapping (bytes32 => bytes32) internal custPwds; // store customer data Passwords\r\n    mapping(address => KycReq[]) public bankRequests; // customer requests bankwise\r\n    Customer[] public customers; // verified customers\r\n    Customer[] public finalCustomers; // verified customers with total votes > 0.5\r\n    mapping(bytes32 => address[]) public b2cRatings; // mapping of which all banks have upvotes a particular customer\r\n    mapping(address => address[]) public b2bRatings; // mapping of which all banks have upvotes a particular bank\r\n    mapping(address => Bank) public banks; // mapping of bank address to its full details\r\n    address[] public bankAddresses; // list of bank addresses\r\n    address public owner; // owner of the contract\r\n\r\n    constructor() public {\r\n        owner = msg.sender;\r\n    }\r\n\r\n    // admin begins ***\r\n    // checks if msg.sender is owner of the contract\r\n    modifier onlyOwner {\r\n        require(msg.sender == owner, \"Only the contract owner can perform this operation\");\r\n        _;\r\n    }\r\n\r\n    modifier newBank(address e, bytes32 rn) {\r\n        bool isUni = true;\r\n        for (uint i=0; i < bankAddresses.length; i++) {\r\n            if (bankAddresses[i] == e || banks[bankAddresses[i]].regNumber == rn) {\r\n                isUni = false;\r\n            }\r\n        }\r\n        require(isUni, \"Bank already present!\");\r\n        _;\r\n    }\r\n\r\n    // adds a new bank\r\n    function addBank(bytes32 n, address e, bytes32 rn) external onlyOwner newBank(e, rn) returns(bool) {\r\n        banks[e] = Bank({name: n, ethAddress:e, rating: 0, kycCount: 0, regNumber:rn});\r\n        bankAddresses.push(e);\r\n        redoB2BRatings(); // update bank ratings and bankRequests' isAllowed here\r\n        redoFinalCustomers(); // update customers and finalCustomers\r\n        return true;\r\n    }\r\n\r\n    // removes an existing bank\r\n    function removeBank(address a) external onlyOwner returns(bool) {\r\n        delete banks[a];\r\n        delete b2bRatings[a];\r\n        removeB2CVotes(a); // remove bank to customer upvotes given by the bank\r\n        removeB2BVotes(a); // remove bank to bank upvotes given by the bank\r\n        // remove bank from bankAddresses\r\n        for (uint i=0; i < bankAddresses.length; i++) {\r\n            if (bankAddresses[i] == a) {\r\n                bankAddresses = removeArrIdx(bankAddresses, i);\r\n            }\r\n        }\r\n        redoB2BRatings(); // re-calculate bank ratings\r\n        redoFinalCustomers(); // update customers and finalCustomers\r\n        return true;\r\n    }\r\n    // *** admin ends\r\n\r\n    // bank begins ***\r\n    // checks if msg.sender is a registeres bank\r\n    modifier onlyBank {\r\n        bool isBank = false;\r\n        for (uint i=0; i < bankAddresses.length; i++) {\r\n            if (bankAddresses[i] == msg.sender) {\r\n                isBank = true;\r\n            }\r\n        }\r\n        require(isBank, \"Only a bank can perform this operation\");\r\n        _;\r\n    }\r\n\r\n    // checks if same data is not present in either customers or finalCustomers list\r\n    modifier uniData(bytes32 data) {\r\n        bool isUni = true;\r\n        for (uint i=0; i < customers.length; i++) {\r\n            if (customers[i].data == data) {\r\n                isUni = false;\r\n                break;\r\n            }\r\n        }\r\n        for (uint i=0; i < finalCustomers.length; i++) {\r\n            if (finalCustomers[i].data == data) {\r\n                isUni = false;\r\n                break;\r\n            }\r\n        }\r\n        require(isUni, \"Customer data is not unique in customers!\");\r\n        _;\r\n    }\r\n\r\n    // checks if same username / data is not present in either customers or finalCustomers list\r\n    modifier uniCusData(bytes32 user, bytes32 data) {\r\n        bool isUni = true;\r\n        for (uint i=0; i < customers.length; i++) {\r\n            if (customers[i].data == data) {\r\n                isUni = false;\r\n                break;\r\n            }\r\n            if (customers[i].username == user) {\r\n                isUni = false;\r\n                break;\r\n            }\r\n        }\r\n        for (uint i=0; i < finalCustomers.length; i++) {\r\n            if (finalCustomers[i].data == data) {\r\n                isUni = false;\r\n                break;\r\n            }\r\n            if (finalCustomers[i].username == user) {\r\n                isUni = false;\r\n                break;\r\n            }\r\n        }\r\n        require(isUni, \"Customer username / data is not unique in customers!\");\r\n        _;\r\n    }\r\n\r\n    // checks if same data is not present in bankRequests of same bank\r\n    // a customer can go to multiple banks to open account so both banks can add respective kycRequests -\r\n    // - but the customer will be added to customers list only once\r\n    modifier uniBankReq(bytes32 user, bytes32 data) {\r\n        bool isUni = true;\r\n        for (uint i=0; i < bankRequests[msg.sender].length; i++) {\r\n            if (bankRequests[msg.sender][i].data == data) {\r\n                isUni = false;\r\n                break;\r\n            }\r\n            if (bankRequests[msg.sender][i].username == user) {\r\n                isUni = false;\r\n                break;\r\n            }\r\n        }\r\n        require(isUni, \"Customer is not unique in requests!\");\r\n        _;\r\n    }\r\n\r\n    // checks if given customer belongs to given bank in customers / finalCustomers\r\n    modifier myCus(bytes32 user, address a) {\r\n        bool mine = false;\r\n        for (uint i=0; i < customers.length; i++) {\r\n            if (customers[i].bank == a) {\r\n                mine = true;\r\n                break;\r\n            }\r\n        }\r\n        if (mine == false) {\r\n            for (uint i=0; i < finalCustomers.length; i++) {\r\n                if (finalCustomers[i].bank == a) {\r\n                    mine = true;\r\n                    break;\r\n                }\r\n            }\r\n        }\r\n        require(mine, \"Customer is not yours!\");\r\n        _;\r\n    }\r\n\r\n    // verifies customer request's isAllowed\r\n    modifier alwdCus(bytes32 user, bytes32 data) {\r\n        bool isAllowed = false;\r\n        for (uint i=0; i < bankAddresses.length; i++) {\r\n            for (uint j=0; j < bankRequests[bankAddresses[i]].length; j++) {\r\n                KycReq memory obj = bankRequests[bankAddresses[i]][j];\r\n                if (obj.username == user && obj.data == data) {\r\n                    if (obj.isAllowed) {\r\n                        isAllowed = true;\r\n                        break;\r\n                    }\r\n                }\r\n            }\r\n        }\r\n        require(isAllowed, \"Customer is not requested by trusted bank!\");\r\n        _;\r\n    }\r\n\r\n    //check customer pwd\r\n    modifier cAuth(bytes32 u, bytes32 p) {\r\n        require(p == custPwds[u], \"Access not granted!\");\r\n        _;\r\n    }\r\n\r\n    // check duplicate bank to customer vote\r\n    modifier uniCusVote(bytes32  u, address a) {\r\n        bool canVote = true;\r\n        for (uint i = 0; i < b2cRatings[u].length; i++) {\r\n            if (b2cRatings[u][i] == a) {\r\n                canVote = false; // cannot re-vote\r\n            }\r\n        }\r\n        require(canVote, \"Cannot re-vote!\");\r\n        _;\r\n    }\r\n\r\n    function addRequest(bytes32 u, bytes32 d) external onlyBank uniCusData(u, d) uniBankReq(u, d) returns (uint) {\r\n        bool isAllowed = banks[msg.sender].rating > 50;\r\n        bankRequests[msg.sender].push(KycReq({username: u, bank: msg.sender, data: d, isAllowed: isAllowed}));\r\n        return 1;\r\n    }\r\n\r\n    function removeRequest(bytes32 u, bytes32 d) external onlyBank returns (uint) {\r\n        uint toreturn = 0;\r\n        for (uint i=0; i < bankRequests[msg.sender].length; i++) {\r\n            if (bankRequests[msg.sender][i].data == d && bankRequests[msg.sender][i].username == u) {\r\n                delete bankRequests[msg.sender][i];\r\n                toreturn = 1;\r\n            }\r\n        }\r\n        return toreturn;\r\n    }\r\n\r\n    function upvoteBank(address a) external onlyBank returns (uint) {\r\n        uint canVote = 1;\r\n        for (uint i=0; i < b2bRatings[a].length; i++) {\r\n            if (b2bRatings[a][i] == msg.sender) {\r\n                canVote = 0; // cannot re-vote\r\n            }\r\n        }\r\n\r\n        //** allow self-vote **//\r\n        // if (msg.sender == a) {\r\n        //     canVote = 0; // cannot self vote\r\n        // }\r\n\r\n        if (canVote == 1) {\r\n            b2bRatings[a].push(msg.sender);\r\n\r\n            // since fixed types are not yet supported so multiplying the value by 100\r\n            banks[a].rating = ((b2bRatings[a].length*100) / bankAddresses.length);\r\n\r\n            // update bankRequests' isAllowed here\r\n            for (uint i=0; i < bankRequests[a].length; i++) {\r\n                bankRequests[a][i].isAllowed = banks[a].rating > 50;\r\n            }\r\n        }\r\n\r\n        return canVote;\r\n    }\r\n\r\n    function setCustPassword(bytes32 u, bytes32 p) external onlyBank returns (uint) {\r\n        custPwds[u] = p;\r\n        return 1;\r\n    }\r\n\r\n    // customer data should be unique\r\n    // customer's request should be allowed to process\r\n    // msg.sender should be a trusted bank\r\n    function addCustomer(bytes32 u, bytes32 d) external onlyBank uniCusData(u, d) alwdCus(u, d) returns (uint) {\r\n        uint toreturn = 0;\r\n        bool isAllowed = banks[msg.sender].rating > 50;\r\n        if (isAllowed) {\r\n            banks[msg.sender].kycCount = banks[msg.sender].kycCount+1;\r\n            customers.push(Customer({username: u, data: d, rating: 0, votes: 0, bank: msg.sender}));\r\n            // set default pwd for customer to 0\r\n            custPwds[u] = 0x3000000000000000000000000000000000000000000000000000000000000000;\r\n            for (uint i=0; i < bankAddresses.length; i++) {\r\n                for (uint j=0; j < bankRequests[bankAddresses[i]].length; j++) {\r\n                    KycReq memory obj = bankRequests[bankAddresses[i]][j];\r\n                    if (obj.username == u && obj.data == d) {\r\n                        delete bankRequests[bankAddresses[i]][j];\r\n                        toreturn = 1;\r\n                        // break; // do not break, remove the same customer's kyc request from all bankRequests\r\n                        // there might be a case that a customer requested kyc with 2 banks, 1 trusted and other not\r\n                    }\r\n                }\r\n            }\r\n        }\r\n        return toreturn;\r\n    }\r\n\r\n    // only the bank who last modified the customer can remove the customer\r\n    function removeCustomer(bytes32 user) external onlyBank myCus(user, msg.sender) returns (uint) {\r\n        uint toreturn = 0;\r\n        for (uint i=0; i < customers.length; i++) {\r\n            if (customers[i].username == user) {\r\n                delete customers[i];\r\n                toreturn = 1;\r\n                break;\r\n            }\r\n        }\r\n        // if not found in customers look in finalCustomers\r\n        if (toreturn == 0) {\r\n            for (uint i=0; i < finalCustomers.length; i++) {\r\n                if (finalCustomers[i].username == user) {\r\n                    delete finalCustomers[i];\r\n                    toreturn = 1;\r\n                    break;\r\n                }\r\n            }\r\n        }\r\n        return toreturn;\r\n    }\r\n\r\n    function modifyCustomer(bytes32 u, bytes32 p, bytes32 d) external onlyBank cAuth(u, p) uniData(d) returns (uint) {\r\n        uint toreturn = 0;\r\n        for (uint i=0; i < customers.length; i++) {\r\n            if (customers[i].username == u) {\r\n                customers[i].data = d;\r\n                customers[i].bank = msg.sender;\r\n                customers[i].votes = 0;\r\n                customers[i].rating = 0;\r\n                toreturn = 1;\r\n                break;\r\n            }\r\n        }\r\n        // if not found in customers look in finalCustomers\r\n        if (toreturn == 0) {\r\n            for (uint i=0; i < finalCustomers.length; i++) {\r\n                if (finalCustomers[i].username == u) {\r\n                    // customer is no more a finalCustomer now\r\n                    delete finalCustomers[i];\r\n                    customers.push(Customer({username:u, data:d, bank:msg.sender, votes:0, rating:0}));\r\n                    toreturn = 1;\r\n                    break;\r\n                }\r\n            }\r\n        }\r\n        return toreturn;\r\n    }\r\n\r\n    function upvoteCust(bytes32 u) external onlyBank uniCusVote(u, msg.sender) returns (uint) {\r\n        b2cRatings[u].push(msg.sender);\r\n        redoFinalCustomers();\r\n        return 1;\r\n    }\r\n\r\n    function viewCustomer(bytes32 user, bytes32 p) external onlyBank cAuth(user, p) view returns (bytes32) {\r\n        bytes32 toreturn = 0x00;\r\n        for (uint i=0; i < customers.length; i++) {\r\n            if (customers[i].username == user) {\r\n                toreturn = customers[i].data;\r\n                break;\r\n            }\r\n        }\r\n        // if not found in customers look in finalCustomers\r\n        if (toreturn == 0x00) {\r\n            for (uint i=0; i < finalCustomers.length; i++) {\r\n                if (finalCustomers[i].username == user) {\r\n                    toreturn = finalCustomers[i].data;\r\n                    break;\r\n                }\r\n            }\r\n        }\r\n        return toreturn;\r\n    }\r\n\r\n    function getCustRating(bytes32 user) external onlyBank view returns (uint) {\r\n        uint toreturn = 0;\r\n        for (uint i=0; i < customers.length; i++) {\r\n            if (customers[i].username == user) {\r\n                toreturn = customers[i].rating;\r\n                break;\r\n            }\r\n        }\r\n        // if not found in customers look in finalCustomers\r\n        if (toreturn == 0) {\r\n            for (uint i=0; i < finalCustomers.length; i++) {\r\n                if (finalCustomers[i].username == user) {\r\n                    toreturn = finalCustomers[i].rating;\r\n                    break;\r\n                }\r\n            }\r\n        }\r\n        return toreturn;\r\n    }\r\n\r\n    function accessHistory(bytes32 user) external onlyBank view returns (address) {\r\n        address toreturn = 0x0000000000000000000000000000000000000000;\r\n        for (uint i=0; i < customers.length; i++) {\r\n            if (customers[i].username == user) {\r\n                toreturn = customers[i].bank;\r\n                break;\r\n            }\r\n        }\r\n        // if not found in customers then check in finalCustomers\r\n        if (toreturn == 0x0000000000000000000000000000000000000000) {\r\n            for (uint i=0; i < finalCustomers.length; i++) {\r\n                if (finalCustomers[i].username == user) {\r\n                    toreturn = finalCustomers[i].bank;\r\n                    break;\r\n                }\r\n            }\r\n        }\r\n        return toreturn;\r\n    }\r\n\r\n    function getBank(address a) external view returns(bytes32, address, uint, uint, bytes32) {\r\n        return (banks[a].name, banks[a].ethAddress, banks[a].rating, banks[a].kycCount, banks[a].regNumber);\r\n    }\r\n\r\n    function getBankRating(address a) external view returns (uint) {\r\n        return  banks[a].rating;\r\n    }\r\n\r\n    //get bank requests step 1 as we cannot return an array of struct so this is a way around\r\n    function getBankRequestsNum(address a) external onlyBank view returns(uint) {\r\n        return bankRequests[a].length;\r\n    }\r\n\r\n    //get bank requests step 2 as we cannot return an array of struct so this is a way around\r\n    function getBankRequest(address a, uint i) external onlyBank view returns (bytes32, bytes32, address, bool) {\r\n        KycReq memory obj = bankRequests[a][i];\r\n        return (obj.username, obj.data, obj.bank, obj.isAllowed);\r\n    }\r\n    // *** bank ends\r\n\r\n    function removeArrIdx(address[] memory array, uint index) internal pure returns(address[] memory) {\r\n        if (index >= array.length) return array;\r\n\r\n        address[] memory arrayNew = new address[](array.length-1);\r\n        for (uint i = 0; i < arrayNew.length; i++) {\r\n            if (i != index && i < index) {\r\n                arrayNew[i] = array[i];\r\n            } else {\r\n                arrayNew[i] = array[i+1];\r\n            }\r\n        }\r\n        delete array;\r\n        return arrayNew;\r\n    }\r\n\r\n    function removeB2CVotes(address a) internal returns (uint) {\r\n        for (uint i=0; i < customers.length; i++) {\r\n            for (uint j=0; j < b2cRatings[customers[i].username].length; j++) {\r\n                if (b2cRatings[customers[i].username][j] == a) {\r\n                    b2cRatings[customers[i].username] = removeArrIdx(b2cRatings[customers[i].username], j);\r\n                }\r\n            }\r\n        }\r\n        for (uint i=0; i < finalCustomers.length; i++) {\r\n            for (uint j=0; j < b2cRatings[finalCustomers[i].username].length; j++) {\r\n                if (b2cRatings[finalCustomers[i].username][j] == a) {\r\n                    b2cRatings[finalCustomers[i].username] = removeArrIdx(b2cRatings[finalCustomers[i].username], j);\r\n                }\r\n            }\r\n        }\r\n        redoFinalCustomers();\r\n    }\r\n\r\n    function redoFinalCustomers() internal returns (uint) {\r\n        for (uint i=0; i < customers.length; i++) {\r\n            customers[i].votes = b2cRatings[customers[i].username].length;\r\n            customers[i].rating = (customers[i].votes * 100) / bankAddresses.length;\r\n            if (customers[i].rating > 50) {\r\n                finalCustomers.push(customers[i]);\r\n                delete customers[i];\r\n            }\r\n        }\r\n        for (uint i=0; i < finalCustomers.length; i++) {\r\n            finalCustomers[i].votes = b2cRatings[finalCustomers[i].username].length;\r\n            finalCustomers[i].rating = (finalCustomers[i].votes * 100) / bankAddresses.length;\r\n            if (finalCustomers[i].rating <= 50) {\r\n                customers.push(finalCustomers[i]);\r\n                delete finalCustomers[i];\r\n            }\r\n        }\r\n        return 1;\r\n    }\r\n\r\n    function redoB2BRatings() internal returns (uint) {\r\n        for (uint i=0; i < bankAddresses.length; i++) {\r\n            banks[bankAddresses[i]].rating = (b2bRatings[bankAddresses[i]].length*100 / bankAddresses.length);\r\n            for (uint j=0; j < bankRequests[bankAddresses[i]].length; j++) {\r\n                bankRequests[bankAddresses[i]][j].isAllowed = banks[bankAddresses[i]].rating > 50;\r\n            }\r\n        }\r\n        return 1;\r\n    }\r\n\r\n    function removeB2BVotes(address a) internal returns (uint) {\r\n        for (uint i=0; i < bankAddresses.length; i++) {\r\n            for (uint j=0; j < b2bRatings[bankAddresses[i]].length; j++) {\r\n                if (b2bRatings[bankAddresses[i]][j] == a) {\r\n                    b2bRatings[bankAddresses[i]] = removeArrIdx(b2bRatings[bankAddresses[i]], j);\r\n                }\r\n            }\r\n        }\r\n        return 1;\r\n    }\r\n\r\n}\r\n",
  "sourcePath": "C:\\node-projects\\bank-kyc\\contracts\\KYC.sol",
  "compiler": {
    "name": "solc",
    "version": "0.5.12+commit.7709ece9.Emscripten.clang"
  },
  "schemaVersion": "3.0.23",
  "updatedAt": "2020-04-03T13:08:33.248Z",
  "networkType": "ethereum",
  "devdoc": {
    "methods": {}
  },
  "userdoc": {
    "methods": {}
  }
}